{
  "contractName": "GuessToken_42",
  "abi": [
    {
      "inputs": [
        {
          "internalType": "uint256",
          "name": "initialSupply",
          "type": "uint256"
        },
        {
          "internalType": "uint256",
          "name": "_secretNumber",
          "type": "uint256"
        }
      ],
      "stateMutability": "nonpayable",
      "type": "constructor"
    },
    {
      "anonymous": false,
      "inputs": [
        {
          "indexed": true,
          "internalType": "address",
          "name": "owner",
          "type": "address"
        },
        {
          "indexed": true,
          "internalType": "address",
          "name": "spender",
          "type": "address"
        },
        {
          "indexed": false,
          "internalType": "uint256",
          "name": "value",
          "type": "uint256"
        }
      ],
      "name": "Approval",
      "type": "event"
    },
    {
      "anonymous": false,
      "inputs": [
        {
          "indexed": true,
          "internalType": "address",
          "name": "from",
          "type": "address"
        },
        {
          "indexed": true,
          "internalType": "address",
          "name": "to",
          "type": "address"
        },
        {
          "indexed": false,
          "internalType": "uint256",
          "name": "value",
          "type": "uint256"
        }
      ],
      "name": "Transfer",
      "type": "event"
    },
    {
      "anonymous": false,
      "inputs": [
        {
          "indexed": true,
          "internalType": "address",
          "name": "player",
          "type": "address"
        },
        {
          "indexed": false,
          "internalType": "uint256",
          "name": "amount",
          "type": "uint256"
        }
      ],
      "name": "Winner",
      "type": "event"
    },
    {
      "inputs": [
        {
          "internalType": "address",
          "name": "",
          "type": "address"
        },
        {
          "internalType": "address",
          "name": "",
          "type": "address"
        }
      ],
      "name": "allowance",
      "outputs": [
        {
          "internalType": "uint256",
          "name": "",
          "type": "uint256"
        }
      ],
      "stateMutability": "view",
      "type": "function",
      "constant": true
    },
    {
      "inputs": [
        {
          "internalType": "address",
          "name": "",
          "type": "address"
        }
      ],
      "name": "approvedPlayers",
      "outputs": [
        {
          "internalType": "bool",
          "name": "",
          "type": "bool"
        }
      ],
      "stateMutability": "view",
      "type": "function",
      "constant": true
    },
    {
      "inputs": [
        {
          "internalType": "address",
          "name": "",
          "type": "address"
        }
      ],
      "name": "balanceOf",
      "outputs": [
        {
          "internalType": "uint256",
          "name": "",
          "type": "uint256"
        }
      ],
      "stateMutability": "view",
      "type": "function",
      "constant": true
    },
    {
      "inputs": [],
      "name": "decimals",
      "outputs": [
        {
          "internalType": "uint8",
          "name": "",
          "type": "uint8"
        }
      ],
      "stateMutability": "view",
      "type": "function",
      "constant": true
    },
    {
      "inputs": [],
      "name": "name",
      "outputs": [
        {
          "internalType": "string",
          "name": "",
          "type": "string"
        }
      ],
      "stateMutability": "view",
      "type": "function",
      "constant": true
    },
    {
      "inputs": [],
      "name": "owner",
      "outputs": [
        {
          "internalType": "address",
          "name": "",
          "type": "address"
        }
      ],
      "stateMutability": "view",
      "type": "function",
      "constant": true
    },
    {
      "inputs": [
        {
          "internalType": "address",
          "name": "",
          "type": "address"
        }
      ],
      "name": "playRequests",
      "outputs": [
        {
          "internalType": "bool",
          "name": "",
          "type": "bool"
        }
      ],
      "stateMutability": "view",
      "type": "function",
      "constant": true
    },
    {
      "inputs": [],
      "name": "symbol",
      "outputs": [
        {
          "internalType": "string",
          "name": "",
          "type": "string"
        }
      ],
      "stateMutability": "view",
      "type": "function",
      "constant": true
    },
    {
      "inputs": [],
      "name": "totalSupply",
      "outputs": [
        {
          "internalType": "uint256",
          "name": "",
          "type": "uint256"
        }
      ],
      "stateMutability": "view",
      "type": "function",
      "constant": true
    },
    {
      "inputs": [],
      "name": "requestToPlay",
      "outputs": [],
      "stateMutability": "nonpayable",
      "type": "function"
    },
    {
      "inputs": [
        {
          "internalType": "address",
          "name": "player",
          "type": "address"
        }
      ],
      "name": "approvePlayer",
      "outputs": [],
      "stateMutability": "nonpayable",
      "type": "function"
    },
    {
      "inputs": [
        {
          "internalType": "uint256",
          "name": "guess",
          "type": "uint256"
        }
      ],
      "name": "guessNumber",
      "outputs": [],
      "stateMutability": "nonpayable",
      "type": "function"
    },
    {
      "inputs": [
        {
          "internalType": "address",
          "name": "to",
          "type": "address"
        },
        {
          "internalType": "uint256",
          "name": "value",
          "type": "uint256"
        }
      ],
      "name": "transfer",
      "outputs": [
        {
          "internalType": "bool",
          "name": "",
          "type": "bool"
        }
      ],
      "stateMutability": "nonpayable",
      "type": "function"
    },
    {
      "inputs": [
        {
          "internalType": "address",
          "name": "spender",
          "type": "address"
        },
        {
          "internalType": "uint256",
          "name": "value",
          "type": "uint256"
        }
      ],
      "name": "approve",
      "outputs": [
        {
          "internalType": "bool",
          "name": "",
          "type": "bool"
        }
      ],
      "stateMutability": "nonpayable",
      "type": "function"
    },
    {
      "inputs": [
        {
          "internalType": "address",
          "name": "from",
          "type": "address"
        },
        {
          "internalType": "address",
          "name": "to",
          "type": "address"
        },
        {
          "internalType": "uint256",
          "name": "value",
          "type": "uint256"
        }
      ],
      "name": "transferFrom",
      "outputs": [
        {
          "internalType": "bool",
          "name": "",
          "type": "bool"
        }
      ],
      "stateMutability": "nonpayable",
      "type": "function"
    }
  ],
  "bytecode": "0x60806040526040518060400160405280600881526020017f47756573735f34320000000000000000000000000000000000000000000000008152505f9081610047919061047c565b506040518060400160405280600581526020017f47535334320000000000000000000000000000000000000000000000000000008152506001908161008c919061047c565b50601260025f6101000a81548160ff021916908360ff1602179055503480156100b3575f5ffd5b50604051611fd1380380611fd183398181016040528101906100d59190610579565b3360045f6101000a81548173ffffffffffffffffffffffffffffffffffffffff021916908373ffffffffffffffffffffffffffffffffffffffff16021790555060025f9054906101000a900460ff1660ff16600a6101339190610713565b8261013e919061075d565b60038190555060035460055f60045f9054906101000a900473ffffffffffffffffffffffffffffffffffffffff1673ffffffffffffffffffffffffffffffffffffffff1673ffffffffffffffffffffffffffffffffffffffff1681526020019081526020015f20819055508060098190555060045f9054906101000a900473ffffffffffffffffffffffffffffffffffffffff1673ffffffffffffffffffffffffffffffffffffffff165f73ffffffffffffffffffffffffffffffffffffffff167fddf252ad1be2c89b69c2b068fc378daa952ba7f163c4a11628f55a4df523b3ef60035460405161023091906107ad565b60405180910390a350506107c6565b5f81519050919050565b7f4e487b71000000000000000000000000000000000000000000000000000000005f52604160045260245ffd5b7f4e487b71000000000000000000000000000000000000000000000000000000005f52602260045260245ffd5b5f60028204905060018216806102ba57607f821691505b6020821081036102cd576102cc610276565b5b50919050565b5f819050815f5260205f209050919050565b5f6020601f8301049050919050565b5f82821b905092915050565b5f6008830261032f7fffffffffffffffffffffffffffffffffffffffffffffffffffffffffffffffff826102f4565b61033986836102f4565b95508019841693508086168417925050509392505050565b5f819050919050565b5f819050919050565b5f61037d61037861037384610351565b61035a565b610351565b9050919050565b5f819050919050565b61039683610363565b6103aa6103a282610384565b848454610300565b825550505050565b5f5f905090565b6103c16103b2565b6103cc81848461038d565b505050565b5b818110156103ef576103e45f826103b9565b6001810190506103d2565b5050565b601f82111561043457610405816102d3565b61040e846102e5565b8101602085101561041d578190505b610431610429856102e5565b8301826103d1565b50505b505050565b5f82821c905092915050565b5f6104545f1984600802610439565b1980831691505092915050565b5f61046c8383610445565b9150826002028217905092915050565b6104858261023f565b67ffffffffffffffff81111561049e5761049d610249565b5b6104a882546102a3565b6104b38282856103f3565b5f60209050601f8311600181146104e4575f84156104d2578287015190505b6104dc8582610461565b865550610543565b601f1984166104f2866102d3565b5f5b82811015610519578489015182556001820191506020850194506020810190506104f4565b868310156105365784890151610532601f891682610445565b8355505b6001600288020188555050505b505050505050565b5f5ffd5b61055881610351565b8114610562575f5ffd5b50565b5f815190506105738161054f565b92915050565b5f5f6040838503121561058f5761058e61054b565b5b5f61059c85828601610565565b92505060206105ad85828601610565565b9150509250929050565b7f4e487b71000000000000000000000000000000000000000000000000000000005f52601160045260245ffd5b5f8160011c9050919050565b5f5f8291508390505b600185111561063957808604811115610615576106146105b7565b5b60018516156106245780820291505b8081029050610632856105e4565b94506105f9565b94509492505050565b5f82610651576001905061070c565b8161065e575f905061070c565b8160018114610674576002811461067e576106ad565b600191505061070c565b60ff8411156106905761068f6105b7565b5b8360020a9150848211156106a7576106a66105b7565b5b5061070c565b5060208310610133831016604e8410600b84101617156106e25782820a9050838111156106dd576106dc6105b7565b5b61070c565b6106ef84848460016105f0565b92509050818404811115610706576107056105b7565b5b81810290505b9392505050565b5f61071d82610351565b915061072883610351565b92506107557fffffffffffffffffffffffffffffffffffffffffffffffffffffffffffffffff8484610642565b905092915050565b5f61076782610351565b915061077283610351565b925082820261078081610351565b91508282048414831517610797576107966105b7565b5b5092915050565b6107a781610351565b82525050565b5f6020820190506107c05f83018461079e565b92915050565b6117fe806107d35f395ff3fe608060405234801561000f575f5ffd5b50600436106100f3575f3560e01c80637f10ab4f116100955780639c3247b2116100645780639c3247b214610273578063a9059cbb146102a3578063b438d018146102d3578063dd62ed3e146102ef576100f3565b80637f10ab4f146101fd5780638da5cb5b146102075780638ecd190d1461022557806395d89b4114610255576100f3565b806323b872dd116100d157806323b872dd14610163578063313ce567146101935780635580aaa3146101b157806370a08231146101cd576100f3565b806306fdde03146100f7578063095ea7b31461011557806318160ddd14610145575b5f5ffd5b6100ff61031f565b60405161010c9190611024565b60405180910390f35b61012f600480360381019061012a91906110d5565b6103aa565b60405161013c919061112d565b60405180910390f35b61014d610497565b60405161015a9190611155565b60405180910390f35b61017d6004803603810190610178919061116e565b61049d565b60405161018a919061112d565b60405180910390f35b61019b61077d565b6040516101a891906111d9565b60405180910390f35b6101cb60048036038101906101c691906111f2565b61078f565b005b6101e760048036038101906101e291906111f2565b6108ff565b6040516101f49190611155565b60405180910390f35b610205610914565b005b61020f61096b565b60405161021c919061122c565b60405180910390f35b61023f600480360381019061023a91906111f2565b610990565b60405161024c919061112d565b60405180910390f35b61025d6109ad565b60405161026a9190611024565b60405180910390f35b61028d600480360381019061028891906111f2565b610a39565b60405161029a919061112d565b60405180910390f35b6102bd60048036038101906102b891906110d5565b610a56565b6040516102ca919061112d565b60405180910390f35b6102ed60048036038101906102e89190611245565b610bec565b005b61030960048036038101906103049190611270565b610f94565b6040516103169190611155565b60405180910390f35b5f805461032b906112db565b80601f0160208091040260200160405190810160405280929190818152602001828054610357906112db565b80156103a25780601f10610379576101008083540402835291602001916103a2565b820191905f5260205f20905b81548152906001019060200180831161038557829003601f168201915b505050505081565b5f8160065f3373ffffffffffffffffffffffffffffffffffffffff1673ffffffffffffffffffffffffffffffffffffffff1681526020019081526020015f205f8573ffffffffffffffffffffffffffffffffffffffff1673ffffffffffffffffffffffffffffffffffffffff1681526020019081526020015f20819055508273ffffffffffffffffffffffffffffffffffffffff163373ffffffffffffffffffffffffffffffffffffffff167f8c5be1e5ebec7d5bd14f71427d1e84f3dd0314c0f7b2291e5b200ac8c7c3b925846040516104859190611155565b60405180910390a36001905092915050565b60035481565b5f8160055f8673ffffffffffffffffffffffffffffffffffffffff1673ffffffffffffffffffffffffffffffffffffffff1681526020019081526020015f2054101561051e576040517f08c379a000000000000000000000000000000000000000000000000000000000815260040161051590611355565b60405180910390fd5b8160065f8673ffffffffffffffffffffffffffffffffffffffff1673ffffffffffffffffffffffffffffffffffffffff1681526020019081526020015f205f3373ffffffffffffffffffffffffffffffffffffffff1673ffffffffffffffffffffffffffffffffffffffff1681526020019081526020015f205410156105d9576040517f08c379a00000000000000000000000000000000000000000000000000000000081526004016105d0906113bd565b60405180910390fd5b8160055f8673ffffffffffffffffffffffffffffffffffffffff1673ffffffffffffffffffffffffffffffffffffffff1681526020019081526020015f205f8282546106259190611408565b925050819055508160055f8573ffffffffffffffffffffffffffffffffffffffff1673ffffffffffffffffffffffffffffffffffffffff1681526020019081526020015f205f828254610678919061143b565b925050819055508160065f8673ffffffffffffffffffffffffffffffffffffffff1673ffffffffffffffffffffffffffffffffffffffff1681526020019081526020015f205f3373ffffffffffffffffffffffffffffffffffffffff1673ffffffffffffffffffffffffffffffffffffffff1681526020019081526020015f205f8282546107069190611408565b925050819055508273ffffffffffffffffffffffffffffffffffffffff168473ffffffffffffffffffffffffffffffffffffffff167fddf252ad1be2c89b69c2b068fc378daa952ba7f163c4a11628f55a4df523b3ef8460405161076a9190611155565b60405180910390a3600190509392505050565b60025f9054906101000a900460ff1681565b60045f9054906101000a900473ffffffffffffffffffffffffffffffffffffffff1673ffffffffffffffffffffffffffffffffffffffff163373ffffffffffffffffffffffffffffffffffffffff161461081e576040517f08c379a0000000000000000000000000000000000000000000000000000000008152600401610815906114b8565b60405180910390fd5b60075f8273ffffffffffffffffffffffffffffffffffffffff1673ffffffffffffffffffffffffffffffffffffffff1681526020019081526020015f205f9054906101000a900460ff166108a7576040517f08c379a000000000000000000000000000000000000000000000000000000000815260040161089e90611520565b60405180910390fd5b600160085f8373ffffffffffffffffffffffffffffffffffffffff1673ffffffffffffffffffffffffffffffffffffffff1681526020019081526020015f205f6101000a81548160ff02191690831515021790555050565b6005602052805f5260405f205f915090505481565b600160075f3373ffffffffffffffffffffffffffffffffffffffff1673ffffffffffffffffffffffffffffffffffffffff1681526020019081526020015f205f6101000a81548160ff021916908315150217905550565b60045f9054906101000a900473ffffffffffffffffffffffffffffffffffffffff1681565b6008602052805f5260405f205f915054906101000a900460ff1681565b600180546109ba906112db565b80601f01602080910402602001604051908101604052809291908181526020018280546109e6906112db565b8015610a315780601f10610a0857610100808354040283529160200191610a31565b820191905f5260205f20905b815481529060010190602001808311610a1457829003601f168201915b505050505081565b6007602052805f5260405f205f915054906101000a900460ff1681565b5f8160055f3373ffffffffffffffffffffffffffffffffffffffff1673ffffffffffffffffffffffffffffffffffffffff1681526020019081526020015f20541015610ad7576040517f08c379a0000000000000000000000000000000000000000000000000000000008152600401610ace90611355565b60405180910390fd5b8160055f3373ffffffffffffffffffffffffffffffffffffffff1673ffffffffffffffffffffffffffffffffffffffff1681526020019081526020015f205f828254610b239190611408565b925050819055508160055f8573ffffffffffffffffffffffffffffffffffffffff1673ffffffffffffffffffffffffffffffffffffffff1681526020019081526020015f205f828254610b76919061143b565b925050819055508273ffffffffffffffffffffffffffffffffffffffff163373ffffffffffffffffffffffffffffffffffffffff167fddf252ad1be2c89b69c2b068fc378daa952ba7f163c4a11628f55a4df523b3ef84604051610bda9190611155565b60405180910390a36001905092915050565b60085f3373ffffffffffffffffffffffffffffffffffffffff1673ffffffffffffffffffffffffffffffffffffffff1681526020019081526020015f205f9054906101000a900460ff16610c75576040517f08c379a0000000000000000000000000000000000000000000000000000000008152600401610c6c90611588565b60405180910390fd5b5f60025f9054906101000a900460ff1660ff16600a610c9491906116d5565b602a610ca0919061171f565b90508060055f60045f9054906101000a900473ffffffffffffffffffffffffffffffffffffffff1673ffffffffffffffffffffffffffffffffffffffff1673ffffffffffffffffffffffffffffffffffffffff1681526020019081526020015f20541015610d43576040517f08c379a0000000000000000000000000000000000000000000000000000000008152600401610d3a906117aa565b60405180910390fd5b6009548203610f90578060055f60045f9054906101000a900473ffffffffffffffffffffffffffffffffffffffff1673ffffffffffffffffffffffffffffffffffffffff1673ffffffffffffffffffffffffffffffffffffffff1681526020019081526020015f205f828254610db99190611408565b925050819055508060055f3373ffffffffffffffffffffffffffffffffffffffff1673ffffffffffffffffffffffffffffffffffffffff1681526020019081526020015f205f828254610e0c919061143b565b925050819055503373ffffffffffffffffffffffffffffffffffffffff1660045f9054906101000a900473ffffffffffffffffffffffffffffffffffffffff1673ffffffffffffffffffffffffffffffffffffffff167fddf252ad1be2c89b69c2b068fc378daa952ba7f163c4a11628f55a4df523b3ef83604051610e919190611155565b60405180910390a33373ffffffffffffffffffffffffffffffffffffffff167f9c2270628a9b29d30ae96b6c4c14ed646ee134febdce38a5b77f2bde9cea2e2082604051610edf9190611155565b60405180910390a25f60085f3373ffffffffffffffffffffffffffffffffffffffff1673ffffffffffffffffffffffffffffffffffffffff1681526020019081526020015f205f6101000a81548160ff0219169083151502179055505f60075f3373ffffffffffffffffffffffffffffffffffffffff1673ffffffffffffffffffffffffffffffffffffffff1681526020019081526020015f205f6101000a81548160ff0219169083151502179055505b5050565b6006602052815f5260405f20602052805f5260405f205f91509150505481565b5f81519050919050565b5f82825260208201905092915050565b8281835e5f83830152505050565b5f601f19601f8301169050919050565b5f610ff682610fb4565b6110008185610fbe565b9350611010818560208601610fce565b61101981610fdc565b840191505092915050565b5f6020820190508181035f83015261103c8184610fec565b905092915050565b5f5ffd5b5f73ffffffffffffffffffffffffffffffffffffffff82169050919050565b5f61107182611048565b9050919050565b61108181611067565b811461108b575f5ffd5b50565b5f8135905061109c81611078565b92915050565b5f819050919050565b6110b4816110a2565b81146110be575f5ffd5b50565b5f813590506110cf816110ab565b92915050565b5f5f604083850312156110eb576110ea611044565b5b5f6110f88582860161108e565b9250506020611109858286016110c1565b9150509250929050565b5f8115159050919050565b61112781611113565b82525050565b5f6020820190506111405f83018461111e565b92915050565b61114f816110a2565b82525050565b5f6020820190506111685f830184611146565b92915050565b5f5f5f6060848603121561118557611184611044565b5b5f6111928682870161108e565b93505060206111a38682870161108e565b92505060406111b4868287016110c1565b9150509250925092565b5f60ff82169050919050565b6111d3816111be565b82525050565b5f6020820190506111ec5f8301846111ca565b92915050565b5f6020828403121561120757611206611044565b5b5f6112148482850161108e565b91505092915050565b61122681611067565b82525050565b5f60208201905061123f5f83018461121d565b92915050565b5f6020828403121561125a57611259611044565b5b5f611267848285016110c1565b91505092915050565b5f5f6040838503121561128657611285611044565b5b5f6112938582860161108e565b92505060206112a48582860161108e565b9150509250929050565b7f4e487b71000000000000000000000000000000000000000000000000000000005f52602260045260245ffd5b5f60028204905060018216806112f257607f821691505b602082108103611305576113046112ae565b5b50919050565b7f496e73756666696369656e742062616c616e63650000000000000000000000005f82015250565b5f61133f601483610fbe565b915061134a8261130b565b602082019050919050565b5f6020820190508181035f83015261136c81611333565b9050919050565b7f416c6c6f77616e636520657863656564656400000000000000000000000000005f82015250565b5f6113a7601283610fbe565b91506113b282611373565b602082019050919050565b5f6020820190508181035f8301526113d48161139b565b9050919050565b7f4e487b71000000000000000000000000000000000000000000000000000000005f52601160045260245ffd5b5f611412826110a2565b915061141d836110a2565b9250828203905081811115611435576114346113db565b5b92915050565b5f611445826110a2565b9150611450836110a2565b9250828201905080821115611468576114676113db565b5b92915050565b7f4e6f74206f776e657200000000000000000000000000000000000000000000005f82015250565b5f6114a2600983610fbe565b91506114ad8261146e565b602082019050919050565b5f6020820190508181035f8301526114cf81611496565b9050919050565b7f506c61796572206d7573742072657175657374206669727374000000000000005f82015250565b5f61150a601983610fbe565b9150611515826114d6565b602082019050919050565b5f6020820190508181035f830152611537816114fe565b9050919050565b7f4e6f7420617070726f76656420746f20706c61790000000000000000000000005f82015250565b5f611572601483610fbe565b915061157d8261153e565b602082019050919050565b5f6020820190508181035f83015261159f81611566565b9050919050565b5f8160011c9050919050565b5f5f8291508390505b60018511156115fb578086048111156115d7576115d66113db565b5b60018516156115e65780820291505b80810290506115f4856115a6565b94506115bb565b94509492505050565b5f8261161357600190506116ce565b81611620575f90506116ce565b816001811461163657600281146116405761166f565b60019150506116ce565b60ff841115611652576116516113db565b5b8360020a915084821115611669576116686113db565b5b506116ce565b5060208310610133831016604e8410600b84101617156116a45782820a90508381111561169f5761169e6113db565b5b6116ce565b6116b184848460016115b2565b925090508184048111156116c8576116c76113db565b5b81810290505b9392505050565b5f6116df826110a2565b91506116ea836110a2565b92506117177fffffffffffffffffffffffffffffffffffffffffffffffffffffffffffffffff8484611604565b905092915050565b5f611729826110a2565b9150611734836110a2565b9250828202611742816110a2565b91508282048414831517611759576117586113db565b5b5092915050565b7f4e6f7420656e6f75676820746f6b656e7320666f7220726577617264000000005f82015250565b5f611794601c83610fbe565b915061179f82611760565b602082019050919050565b5f6020820190508181035f8301526117c181611788565b905091905056fea2646970667358221220a5fa1606f136d70bad911fc5eed0fa93f8c6d374df44a2b6adc41b9f2ddbfdaf64736f6c634300081e0033",
  "immutableReferences": {},
  "source": "// SPDX-License-Identifier: MIT\npragma solidity ^0.8.4;\n\ncontract GuessToken_42 {\n    string public name = \"Guess_42\";\n    string public symbol = \"GSS42\";\n    uint8 public decimals = 18;\n    uint256 public totalSupply;\n    address public owner;\n\n    mapping(address => uint256) public balanceOf;\n    mapping(address => mapping(address => uint256)) public allowance;\n    mapping(address => bool) public playRequests; // Tracks client requests\n    mapping(address => bool) public approvedPlayers; // Tracks owner approvals\n\n    uint256 private secretNumber;\n\n    event Transfer(address indexed from, address indexed to, uint256 value);\n    event Approval(address indexed owner, address indexed spender, uint256 value);\n    event Winner(address indexed player, uint256 amount);\n\n    modifier onlyOwner() {\n        require(msg.sender == owner, \"Not owner\");\n        _;\n    }\n\n    constructor(uint256 initialSupply, uint256 _secretNumber) {\n        owner = msg.sender;\n        totalSupply = initialSupply * 10 ** uint256(decimals);\n        balanceOf[owner] = totalSupply;\n        secretNumber = _secretNumber;\n        emit Transfer(address(0), owner, totalSupply);\n    }\n\n    function requestToPlay() public {\n        playRequests[msg.sender] = true;\n    }\n\n    function approvePlayer(address player) public onlyOwner {\n        require(playRequests[player], \"Player must request first\");\n        approvedPlayers[player] = true;\n    }\n\n    function guessNumber(uint256 guess) public {\n        require(approvedPlayers[msg.sender], \"Not approved to play\");\n        uint256 rewardAmount = 42 * 10 ** uint256(decimals);\n        require(balanceOf[owner] >= rewardAmount, \"Not enough tokens for reward\");\n        if (guess == secretNumber) {\n            balanceOf[owner] -= rewardAmount;\n            balanceOf[msg.sender] += rewardAmount;\n            emit Transfer(owner, msg.sender, rewardAmount);\n            emit Winner(msg.sender, rewardAmount);\n            // reset approval so player must request again for next round\n            approvedPlayers[msg.sender] = false;\n            playRequests[msg.sender] = false;\n        }\n    }\n\n    function transfer(address to, uint256 value) public returns (bool) {\n        require(balanceOf[msg.sender] >= value, \"Insufficient balance\");\n        balanceOf[msg.sender] -= value;\n        balanceOf[to] += value;\n        emit Transfer(msg.sender, to, value);\n        return true;\n    }\n\n    function approve(address spender, uint256 value) public returns (bool) {\n        allowance[msg.sender][spender] = value;\n        emit Approval(msg.sender, spender, value);\n        return true;\n    }\n\n    function transferFrom(address from, address to, uint256 value) public returns (bool) {\n        require(balanceOf[from] >= value, \"Insufficient balance\");\n        require(allowance[from][msg.sender] >= value, \"Allowance exceeded\");\n        balanceOf[from] -= value;\n        balanceOf[to] += value;\n        allowance[from][msg.sender] -= value;\n        emit Transfer(from, to, value);\n        return true;\n    }\n}",
  "sourcePath": "/home/tlukanie/Tokenizer_Guess/code/GuessToken_42.sol",
  "compiler": {
    "name": "solc",
    "version": "0.8.30+commit.73712a01.Emscripten.clang"
  },
  "schemaVersion": "3.4.16",
  "updatedAt": "2025-05-23T13:37:20.096Z",
  "networkType": "ethereum",
  "devdoc": {
    "kind": "dev",
    "methods": {},
    "version": 1
  },
  "userdoc": {
    "kind": "user",
    "methods": {},
    "version": 1
  },
  "db": {
    "callBytecode": {
      "id": "0x41956ee3db4aec895008216c236c07717ca97a8bd1b44cf1f68853e451ad2a64"
    },
    "createBytecode": {
      "id": "0x44b9f0bc1b61104bcc4404942cf238a60f51a63f47b87db467742c691ebc3247"
    },
    "contract": {
      "id": "0x5af2313771cf88a8ebd48a5e4323b8e2f58aac23eb242e38091c6353f43630d3"
    }
  }
}